:100000000C9462000C948A000C948A000C948A0070
:100010000C948A000C948A000C948A000C948A0038
:100020000C948A000C948A000C948A000C948A0028
:100030000C948A000C948A000C948A000C948A0018
:100040000C9497020C948A000C9465020C943F0265
:100050000C948A000C948A000C948A000C948A00F8
:100060000C948A000C948A00000000080002010031
:100070000003040700000000000000000000000072
:10008000250028002B0000000000240027002A0083
:1000900000000000230026002900040404040404D6
:1000A0000404020202020202030303030303010227
:1000B00004081020408001020408102001020408F6
:1000C0001020410411241FBECFEFD8E0DEBFCDBF0A
:1000D00011E0A0E0B1E0E4E3FBE002C005900D9286
:1000E000A231B107D9F721E0A2E1B1E001C01D9230
:1000F000A83BB207E1F710E0C2E6D0E004C02197C8
:10010000FE010E949205C136D107C9F70E9426035D
:100110000C9498050C940000AF92BF92CF92DF929E
:10012000EF92FF920F931F93CF93DF936C017B01AC
:100130008B01040F151FEB015E01AE18BF08C0173D
:10014000D10759F06991D601ED91FC910190F081B0
:10015000E02DC6010995892B79F7C501DF91CF9173
:100160001F910F91FF90EF90DF90CF90BF90AF90D5
:100170000895FC01538D448D252F30E0842F90E0AD
:10018000821B930B541710F0CF9608950197089592
:10019000FC01918D828D981761F0A28DAE0FBF2F5B
:1001A000B11D5D968C91928D9F5F9F73928F90E0B1
:1001B00008958FEF9FEF0895FC01918D828D981720
:1001C00031F0828DE80FF11D858D90E008958FEF5D
:1001D0009FEF0895FC01918D228D892F90E0805C26
:1001E0009F4F821B91098F73992708958BE191E0AE
:1001F0000E94EA0021E0892B09F420E0822F089573
:1002000080E090E0892B29F00E94F60081110C9487
:1002100000000895FC01A48DA80FB92FB11DA35AA9
:10022000BF4F2C91848D90E001968F739927848F16
:10023000A689B7892C93A089B1898C918370806439
:100240008C93938D848D981306C00288F389E02DDA
:1002500080818F7D80830895EF92FF920F931F938B
:10026000CF93DF93EC0181E0888F9B8D8C8D981369
:100270001AC0E889F989808185FF15C09FB7F89475
:10028000EE89FF896083E889F989808183708064C1
:1002900080839FBF81E090E0DF91CF911F910F910C
:1002A000FF90EF900895F62E0B8D10E00F5F1F4F1B
:1002B0000F731127E02E8C8D8E110CC00FB607FC2A
:1002C000FACFE889F989808185FFF5CFCE010E94B8
:1002D0000A01F1CFEB8DEC0FFD2FF11DE35AFF4F1B
:1002E000F0829FB7F8940B8FEA89FB898081806246
:1002F000CFCFCF93DF93EC01888D8823B9F0AA8903
:10030000BB89E889F9898C9185FD03C0808186FDD0
:100310000DC00FB607FCF7CF8C9185FFF2CF80811F
:1003200085FFEDCFCE010E940A01E9CFDF91CF9189
:10033000089590E0FC01E859FF4F2491FC01E2553B
:10034000FF4F3491FC01E656FF4FE491EE23C9F0D4
:10035000222339F0233001F1A8F4213019F12230A1
:1003600029F1F0E0EE0FFF1FE458FF4FA591B49183
:100370008FB7F894EC91611126C030953E233C93E1
:100380008FBF08952730A9F02830C9F0243049F7ED
:10039000809180008F7D03C0809180008F77809353
:1003A0008000DFCF84B58F7784BDDBCF84B58F7DB0
:1003B000FBCF8091B0008F778093B000D2CF809137
:1003C000B0008F7DF9CF3E2BDACF3FB7F894809104
:1003D000170190911801A0911901B0911A0126B549
:1003E000A89B05C02F3F19F00196A11DB11D3FBF6D
:1003F000BA2FA92F982F8827BC01CD01620F711D3C
:10040000811D911D42E0660F771F881F991F4A9535
:10041000D1F708958F929F92AF92BF92CF92DF92C1
:10042000EF92FF920E94E5014B015C0184E1C82E2E
:10043000D12CE12CF12C0E94E501681979098A0977
:100440009B09683E734081059105A8F321E0C21A1B
:10045000D108E108F10888EE880E83E0981EA11CFF
:10046000B11CC114D104E104F10429F7FF90EF900D
:10047000DF90CF90BF90AF909F908F9008951F9284
:100480000F920FB60F9211242F933F934F935F93C8
:100490006F937F938F939F93AF93BF93EF93FF934C
:1004A0008BE191E00E940A01FF91EF91BF91AF9122
:1004B0009F918F917F916F915F914F913F912F917C
:1004C0000F900FBE0F901F9018951F920F920FB6AE
:1004D0000F9211242F938F939F93EF93FF93E091AB
:1004E0002B01F0912C018081E0913101F0913201DA
:1004F00082FD1BC09081809134018F5F8F732091AA
:100500003501821741F0E0913401F0E0E55EFE4FE5
:10051000958F80933401FF91EF919F918F912F914F
:100520000F900FBE0F901F9018958081F4CF1F92EF
:100530000F920FB60F9211242F933F938F939F9397
:10054000AF93BF938091130190911401A091150175
:10055000B09116013091120123E0230F2D3758F589
:100560000196A11DB11D2093120180931301909358
:100570001401A0931501B093160180911701909179
:100580001801A0911901B0911A010196A11DB11D88
:100590008093170190931801A0931901B0931A0149
:1005A000BF91AF919F918F913F912F910F900FBE6F
:1005B0000F901F90189526E8230F0296A11DB11DDC
:1005C000D2CFCF92DF92EF92FF920F931F93E82F3B
:1005D000F92F05C0015011092109310961F19081FC
:1005E00096239417B9F305C0015011092109310967
:1005F00011F1908196239413F7CFC12CD12CE12CCB
:10060000F12C0AC08FEFC81AD80AE80AF80A0C15AC
:100610001D052E053F0579F080818623841791F30F
:100620006C2D7D2D8E2D9F2D1F910F91FF90EF90A2
:10063000DF90CF90089560E070E080E090E01F913F
:100640000F91FF90EF90DF90CF900895789484B54C
:10065000826084BD84B5816084BD85B5826085BDBE
:1006600085B5816085BD80916E00816080936E004C
:10067000109281008091810082608093810080913E
:1006800081008160809381008091800081608093EF
:1006900080008091B10084608093B1008091B000AF
:1006A00081608093B00080917A00846080937A00AA
:1006B00080917A00826080937A0080917A008160D4
:1006C00080937A0080917A00806880937A001092FB
:1006D000C100E0912B01F0912C0182E08083E09138
:1006E0002701F09128011082E0912901F0912A015F
:1006F0008FEC808310923301E0912F01F091300153
:1007000086E08083E0912D01F0912E01808180614F
:100710008083E0912D01F0912E018081886080839B
:10072000E0912D01F0912E01808180688083E0911D
:100730002D01F0912E0180818F7D8083E7EBF0E029
:100740002491E3EAF0E08491882399F090E0880F07
:10075000991FFC01EA57FF4FA591B491FC01E458A1
:10076000FF4F859194918FB7F894EC91E22BEC9325
:100770008FBFC8EBD0E0FE01249154EAE52E50E093
:10078000F52EF70184918823C9F090E0880F991F16
:10079000FC01EA57FF4FA591B491FC01E458FF4FCB
:1007A000459154913FB7F8949C91822F809598235E
:1007B0009C93FA019081892380833FBF93E0C92EE7
:1007C000D12C23E2A22EB12C30E0832E30E0932EE8
:1007D00060E089E00E949901C6010197F1F761E0AC
:1007E00089E00E949901C5010197F1F760E089E075
:1007F0000E949901FE016491F7018491E82FF0E0D5
:10080000EE0FFF1FE057FF4F8591949100E412E433
:100810002FE030E0462F0E94E1026115710581054D
:10082000910529F06F5F7F4F8F4F9F4F9F700E9400
:10083000730428E23EE74CE05DE30E94D40420E02C
:1008400030E040E05FE30E94D40420E030E04FEA73
:1008500053E40E946E0461E418160CF462E48BE128
:1008600091E00E942C010E940A028114910409F473
:10087000AFCF0E94F600882309F4AACF0E9400009F
:10088000A7CFEBE1F1E01382128288EE93E0A0E0C3
:10089000B0E084839583A683B78384E091E091835D
:1008A000808385EC90E09587848784EC90E097873F
:1008B000868780EC90E0918B808B81EC90E0938B2D
:1008C000828B82EC90E0958B848B86EC90E0978B0A
:1008D000868B118E128E138E148E08950E94B00492
:1008E00008F481E00895E89409C097FB3EF49095E0
:1008F0008095709561957F4F8F4F9F4F9923A9F0F9
:10090000F92F96E9BB279395F69587957795679587
:10091000B795F111F8CFFAF4BB0F11F460FF1BC0CB
:100920006F5F7F4F8F4F9F4F16C0882311F096E95E
:1009300011C0772321F09EE8872F762F05C066230C
:1009400071F096E8862F70E060E02AF09A95660FC5
:10095000771F881FDAF7880F9695879597F908957E
:10096000990F0008550FAA0BE0E8FEEF16161706C0
:10097000E807F907C0F012161306E407F50798F028
:10098000621B730B840B950B39F40A2661F0232B41
:10099000242B252B21F408950A2609F4A140A695BD
:1009A0008FEF811D811D08950E94E7040C94580566
:1009B0000E944A0538F00E94510520F0952311F05D
:1009C0000C9441050C94470511240C948C050E944D
:1009D000690570F3959FC1F3950F50E0551F629F15
:1009E000F001729FBB27F00DB11D639FAA27F00D88
:1009F000B11DAA1F649F6627B00DA11D661F829FAF
:100A00002227B00DA11D621F739FB00DA11D621F93
:100A1000839FA00D611D221F749F3327A00D611DB0
:100A2000231F849F600D211D822F762F6A2F112492
:100A30009F5750409AF0F1F088234AF0EE0FFF1FC5
:100A4000BB1F661F771F881F91505040A9F79E3F1C
:100A5000510580F00C9441050C948C055F3FE4F344
:100A6000983ED4F3869577956795B795F795E79572
:100A70009F5FC1F7FE2B880F911D9695879597F97B
:100A8000089597F99F6780E870E060E008959FEF10
:100A900080EC089500240A94161617061806090615
:100AA000089500240A9412161306140605060895E4
:100AB000092E0394000C11F4882352F0BB0F40F46C
:100AC000BF2B11F460FF04C06F5F7F4F8F4F9F4FAC
:100AD000089557FD9058440F551F59F05F3F71F02E
:100AE0004795880F97FB991F61F09F3F79F0879595
:100AF0000895121613061406551FF2CF4695F1DF1E
:100B000008C0161617061806991FF1CF86957105AD
:100B1000610508940895E894BB2766277727CB01E1
:100B200097F90895EE0FFF1F0590F491E02D0994B9
:040B3000F894FFCF67
:100B3400000000002C018C00B9007901EA00C80013
:020B4400DC00D3
:00000001FF
