:100000000C9462000C948A000C948A000C948A0070
:100010000C948A000C948A000C948A000C948A0038
:100020000C948A000C948A000C948A000C9464024C
:100030000C948A000C948A000C948A000C948A0018
:100040000C941A020C948A000C948A000C948A0076
:100050000C948A000C948A000C948A000C948A00F8
:100060000C948A000C948A000000000025002800EF
:100070002B0000000000240027002A0000000000E0
:1000800023002600290004040404040404040202DA
:100090000202020203030303030301020408102007
:1000A0004080010204081020010204081020000012
:1000B0000008000201000003040700000000000027
:1000C0000000970411241FBECFEFD8E0DEBFCDBFE4
:1000D00011E0A0E0B1E0ECE4FAE002C005900D927E
:1000E000A030B107D9F721E0A0E0B1E001C01D9236
:1000F000A134B207E1F710E0C2E6D0E004C02197D6
:10010000FE010E941E05C136D107C9F70E943B03BC
:100110000C9424050C940000833081F028F4813085
:1001200099F08230A9F008958730A9F08830C9F09D
:100130008430B1F4809180008F7D03C08091800075
:100140008F7780938000089584B58F7784BD08955C
:1001500084B58F7DFBCF8091B0008F778093B00006
:1001600008958091B0008F7DF9CF1F93CF93DF93D7
:10017000282F30E0F901E255FF4F8491F901E6564E
:10018000FF4FD491F901EA57FF4FC491CC23A9F056
:10019000162F81110E948C00EC2FF0E0EE0FFF1F54
:1001A000E859FF4FA591B4918FB7F894EC911111D4
:1001B00008C0D095DE23DC938FBFDF91CF911F91D4
:1001C0000895DE2BF8CF3FB7F89480910701909106
:1001D0000801A0910901B0910A0126B5A89B05C0AC
:1001E0002F3F19F00196A11DB11D3FBFBA2FA92FB6
:1001F000982F8827BC01CD01620F711D811D911DB3
:1002000042E0660F771F881F991F4A95D1F708951E
:100210008F929F92AF92BF92CF92DF92EF92FF9216
:100220004B015C010E94E3006B017C010E94E30032
:100230006C197D098E099F09683E734081059105FF
:10024000A8F321E0821A9108A108B10888EEC80E2F
:1002500083E0D81EE11CF11C81149104A104B104B7
:1002600029F7FF90EF90DF90CF90BF90AF909F90D5
:100270008F9008958F929F92AF92BF92FF920F93AB
:100280001F93CF93DF93FC01653B710511F464EB81
:1002900070E0F0808BE08F1508F44AC0828108E599
:1002A00012E0081B110987FD1395000F111F000FA5
:1002B000111F8181C8E8D0E0C81BD10987FDD39503
:1002C000CC0FDD1FCC0FDD1F4E010D2E000CAA0838
:1002D000BB089801012E000C440B550B2819390955
:1002E0004A095B09DB010E94D90424EB30E040E0BD
:1002F00050E00E94AF04820E931EA41EB51E8C1601
:100300009D062CF0E801801691060CF4E40122977A
:10031000CC0FDD1F2FB7F8948F2D90E0FC01EE0F6E
:10032000FF1FE80FF91FE55FFE4FD283C1832FBF88
:10033000DF91CF911F910F91FF90BF90AF909F9051
:100340008F900895CF93DF93DC018C918C3008F06F
:100350006DC0CB01FB01E656FF4F24918A579F4F9A
:10036000FC018491882399F090E0880F991FFC018B
:10037000EE58FF4FC591D491FC01E859FF4F85918C
:1003800094918FB7F894E881E22BE8838FBF8C912A
:10039000282F30E0F901EE0FFF1FE20FF31FE55F9A
:1003A000FE4F962F9F736081607C692B608311964E
:1003B0001C92119712961C9212972CE0622F0E94A9
:1003C0001205829FB001112430E020E0AB01420F02
:1003D000531FFA01EE0FFF1FE40FF51FE55FFE4FFD
:1003E000908196FD16C02F5F3F4F2C30310571F77D
:1003F00081110FC01092800082E0809381001092E2
:10040000850010928400B19A80916F008260809381
:100410006F00EC918E2F90E0FC01EE0FFF1FE80FB4
:10042000F91FE55FFE4F8081806480838C91DF91AE
:10043000CF9108951F920F920FB60F9211242F9310
:100440003F938F939F93AF93BF93809103019091BC
:100450000401A0910501B09106013091020123E051
:10046000230F2D3758F50196A11DB11D20930201D0
:100470008093030190930401A0930501B0930601BA
:100480008091070190910801A0910901B0910A01A2
:100490000196A11DB11D8093070190930801A093BF
:1004A0000901B0930A01BF91AF919F918F913F9144
:1004B0002F910F900FBE0F901F90189526E8230FD5
:1004C0000296A11DB11DD2CF1F920F920FB60F92AF
:1004D00011242F933F934F935F936F937F938F9349
:1004E0009F93AF93BF93CF93DF93EF93FF9380914D
:1004F0000001C0910101D0E087FF24C01092850067
:1005000010928400809100018F5F809300018091A0
:100510000001082E000C990B8C179D0724F4809184
:1005200000018C30C4F18091840090918500049684
:1005300080349C4908F47AC08091840090918500B1
:10054000049676C080910001082E000C990B8C1740
:100550009D07C4F6E09100018E2FEE0F990BFC0170
:10056000EE0FFF1FE80FF91FE55FFE4F808186FF4A
:10057000C9CFE09100018E2FEE0F990BFC01EE0F19
:10058000FF1FE80FF91FE55FFE4F808160E08F736A
:100590000E94B500B7CF2091840030918500E09192
:1005A00000018E2FEE0F990BFC01EE0FFF1FE80FDD
:1005B000F91FE55FFE4F81819281820F931F909317
:1005C000890080938800E09100018E2FEE0F990B37
:1005D000FC01EE0FFF1FE80FF91FE55FFE4F808162
:1005E00086FF11C0E09100018E2FEE0F990BFC01E8
:1005F000EE0FFF1FE80FF91FE55FFE4F808161E0FE
:100600008F730E94B500FF91EF91DF91CF91BF9161
:10061000AF919F918F917F916F915F914F913F919A
:100620002F910F900FBE0F901F90189580E49CE9BA
:1006300090938900809388008FEF80930001E3CF2F
:10064000FC01909101019C3098F481E0890F809326
:1006500001019083892F90E0FC01EE0FFF1FE80F4E
:10066000F91FE55FFE4F88EB9BE09283818308953D
:100670008FEF80830895789484B5826084BD84B5BB
:10068000816084BD85B5826085BD85B5816085BD8D
:1006900080916E00816080936E0010928100809145
:1006A00081008260809381008091810081608093CD
:1006B0008100809180008160809380008091B100F2
:1006C00084608093B1008091B00081608093B0001D
:1006D00080917A00846080937A0080917A008260B1
:1006E00080937A0080917A00816080937A00809173
:1006F0007A00806880937A001092C100C7EAD0E047
:10070000FE01249103E910E0F80184918823C9F0E7
:1007100090E0880F991FFC01EE58FF4FA591B4910E
:10072000FC01E859FF4F459154913FB7F8949C91D3
:10073000822F809598239C93FA019081892380834E
:100740003FBFBBEBEB2EB0E0FB2E80E0C82E80E07D
:10075000D82E63E070E08EE391E00E94A20165E094
:1007600070E08BE391E00E94A20166E070E088E314
:1007700091E00E94A20169E070E085E391E00E94AF
:10078000A2016AE070E082E391E00E94A2016BE0C6
:1007900070E08FE291E00E94A20170E060E08EE3E1
:1007A00091E00E943A0170E060E08BE391E00E94EA
:1007B0003A0170E060E088E391E00E943A0170E065
:1007C00060E085E391E00E943A0170E060E082E33E
:1007D00091E00E943A0170E060E08FE291E00E94B7
:1007E0003A016FE070E080E090E00E940801F701BC
:1007F0008491FE01A490F801B490BB2009F442C09A
:1008000081110E948C00EB2DF0E0EE0FFF1FE458E9
:10081000FF4FA591B4918C91A822A1F1B12CA12CEC
:10082000B5018EE391E00E943A01B5018BE391E0BE
:100830000E943A01B50188E391E00E943A01B501B6
:1008400085E391E00E943A01B50182E391E00E94C4
:100850003A01B5018FE291E00E943A0165E070E053
:1008600080E090E00E940801FFEFAF1ABF0A85EB1D
:10087000A816B104A9F6C114D10409F46ACF0E94E4
:10088000000067CFE0913E018E2F90E0FC01EE0F5B
:10089000FF1FE80FF91FE55FFE4F80818F7B80838C
:1008A000E0913B018E2F90E0FC01EE0FFF1FE80F5F
:1008B000F91FE55FFE4F80818F7B8083E0913801D7
:1008C0008E2F90E0FC01EE0FFF1FE80FF91FE55F90
:1008D000FE4F80818F7B8083E09135018E2F90E0E9
:1008E000FC01EE0FFF1FE80FF91FE55FFE4F80814F
:1008F0008F7B8083E09132018E2F90E0FC01EE0F20
:10090000FF1FE80FF91FE55FFE4F80818F7B80831B
:10091000E0912F018E2F90E0FC01EE0FFF1FE80FFA
:10092000F91FE55FFE4F80818F7B8083A4CF8EE32C
:1009300091E00E9420038BE391E00E94200388E372
:1009400091E00E94200385E391E00E94200382E36E
:1009500091E00E9420038FE291E00C942003052E89
:1009600097FB1EF400940E94C60457FD07D00E9416
:10097000E10407FC03D04EF40C94C6045095409556
:10098000309521953F4F4F4F5F4F0895909580953B
:10099000709561957F4F8F4F9F4F08950E9403057B
:1009A000A59F900DB49F900DA49F800D911D1124C3
:1009B0000895B7FF0C94CE040E94CE04821B930BC3
:1009C0000895A1E21A2EAA1BBB1BFD010DC0AA1F90
:1009D000BB1FEE1FFF1FA217B307E407F50720F0A8
:1009E000A21BB30BE40BF50B661F771F881F991F23
:1009F0001A9469F760957095809590959B01AC016C
:100A0000BD01CF010895A29FB001B39FC001A39F74
:100A1000700D811D1124911DB29F700D811D112437
:100A2000911D0895991B79E004C0991F961708F04D
:100A3000961B881F7A95C9F780950895EE0FFF1FC2
:0C0A40000590F491E02D0994F894FFCF8C
:00000001FF
