:020000040000FA
:100000000C9462000C948A000C948A000C948A0070
:100010000C948A000C948A000C948A000C948A0038
:100020000C948A000C948A000C948A000C94DD03D2
:100030000C948A000C948A000C948A000C948A0018
:100040000C9493030C948A000C9461030C943B036E
:100050000C948A000C948A000C948A000C948A00F8
:100060000C948A000C948A000000000024002700F1
:100070002A0000000000250028002B0000000008D6
:10008000000201000003040700000000000000005F
:1000900000000000230026002900040404040404D6
:1000A0000404020202020202030303030303010227
:1000B00004081020408001020408102001020408F6
:1000C0001020F90411241FBECFEFD8E0DEBFCDBF52
:1000D00011E0A0E0B1E0E8EBF2E102C005900D9282
:1000E000A432B107D9F722E0A4E2B1E001C01D9229
:1000F000A630B207E1F710E0C2E6D0E004C02197D5
:10010000FE010E945409C136D107C9F70E943D057E
:100110000C945A090C940000DC01EC91EC30E0F4F2
:1001200012962C9188E592E0821B910927FD939508
:1001300023E0880F991F2A95E1F704974FB7F894A9
:100140002E2F30E0F901EE0FFF1FE20FF31FED5CE1
:10015000FE4F928381834FBF0895AF92BF92CF929B
:10016000DF92EF92FF920F931F93CF93DF936C0177
:100170007B018B01040F151FEB015E01AE18BF0858
:10018000C017D10759F06991D601ED91FC9101900A
:10019000F081E02DC6010995892B79F7C501DF9122
:1001A000CF911F910F91FF90EF90DF90CF90BF9074
:1001B000AF900895FC01538D448D252F30E0842F9E
:1001C00090E0821B930B541710F0CF96089501977F
:1001D0000895FC01918D828D981761F0A28DAE0F6C
:1001E000BF2FB11D5D968C91928D9F5F9F73928FF3
:1001F00090E008958FEF9FEF0895FC01918D828D1F
:10020000981731F0828DE80FF11D858D90E00895EB
:100210008FEF9FEF0895FC01918D228D892F90E043
:10022000805C9F4F821B91098F739927089587E502
:1002300091E00E940B0121E0892B09F420E0822F3C
:10024000089580E090E0892B29F00E941701811128
:100250000C9400000895FC01A48DA80FB92FB11DC6
:10026000A35ABF4F2C91848D90E001968F739927EC
:10027000848FA689B7892C93A089B1898C918370CA
:1002800080648C93938D848D981306C00288F389C3
:10029000E02D80818F7D80830895EF92FF920F93F0
:1002A0001F93CF93DF93EC0181E0888F9B8D8C8D22
:1002B00098131AC0E889F989808185FF15C09FB716
:1002C000F894EE89FF896083E889F98980818370D9
:1002D000806480839FBF81E090E0DF91CF911F9188
:1002E0000F91FF90EF900895F62E0B8D10E00F5FA9
:1002F0001F4F0F731127E02E8C8D8E110CC00FB67F
:1003000007FCFACFE889F989808185FFF5CFCE0116
:100310000E942B01F1CFEB8DEC0FFD2FF11DE35A65
:10032000FF4FF0829FB7F8940B8FEA89FB89808199
:100330008062CFCFCF93DF93EC01888D8823B9F013
:10034000AA89BB89E889F9898C9185FD03C08081E0
:1003500086FD0DC00FB607FCF7CF8C9185FFF2CF5D
:10036000808185FFEDCFCE010E942B01E9CFDF9187
:10037000CF91089590E0FC01E458FF4F2491FC01D7
:10038000E255FF4F3491FC01E656FF4FE491EE2316
:10039000C9F0222339F0233001F1A8F4213019F1FA
:1003A000223029F1F0E0EE0FFF1FEE58FF4FA5912C
:1003B000B4918FB7F894EC91611126C030953E232B
:1003C0003C938FBF08952730A9F02830C9F024301E
:1003D00049F7809180008F7D03C0809180008F77E6
:1003E00080938000DFCF84B58F7784BDDBCF84B569
:1003F0008F7DFBCF8091B0008F778093B000D2CFFC
:100400008091B0008F7DF9CF3E2BDACFCF93DF9371
:1004100090E0FC01E255FF4F249186569F4FFC016E
:1004200084918823D1F090E0880F991FFC01E8594E
:10043000FF4FA591B491FC01EE58FF4FC591D491A7
:1004400061110EC09FB7F8948C91E22FE0958E2336
:100450008C932881E223E8839FBFDF91CF91089599
:100460008FB7F894EC91E22BEC938FBFF6CF3FB7A8
:10047000F89480912B0190912C01A0912D01B091C5
:100480002E0126B5A89B05C02F3F19F00196A11D8E
:10049000B11D3FBFBA2FA92F982F8827BC01CD01CE
:1004A000620F711D811D911D42E0660F771F881F2D
:1004B000991F4A95D1F708958F929F92AF92BF925C
:1004C000CF92DF92EF92FF924B015C010E943702C4
:1004D0006B017C010E9437026C197D098E099F090E
:1004E000683E734081059105A8F321E0821A9108C6
:1004F000A108B10888EEC80E83E0D81EE11CF11CEB
:1005000081149104A104B10429F7FF90EF90DF90CA
:10051000CF90BF90AF909F908F9008951F93CF93EF
:10052000DF93EC01162F88818C3008F04EC061E01B
:10053000812F0E9406028881282F30E0F901EE0FFA
:10054000FF1FE20FF31FED5CFE4F1F736081607CA5
:10055000612B608319821A822CE0622F0E94480965
:10056000829FB001112430E020E0AB01420F531F05
:10057000FA01EE0FFF1FE40FF51FED5CFE4F9081B7
:1005800096FD16C02F5F3F4F2C30310571F781115A
:100590000FC01092800082E080938100109285004D
:1005A00010928400B19A80916F00826080936F00F6
:1005B000E8818E2F90E0FC01EE0FFF1FE80FF91F7E
:1005C000ED5CFE4F8081806480838881DF91CF91D4
:1005D0001F910895FC0101900020E9F73197AF01C8
:1005E000481B590BBC0187E591E00C94AD008F923C
:1005F0009F92AF92BF920F931F93CF93DF93CDB78C
:10060000DEB7A1970FB6F894DEBF0FBECDBF19A21B
:10061000423008F44AE08E010F5D1F4F842E912C6A
:10062000B12CA12CA50194010E945C07E62FB90111
:10063000CA01EA30F4F4E05DD801EE938D01232B7A
:10064000242B252B79F790E080E0109719F0CD014D
:100650000E94EA02A1960FB6F894DEBF0FBECDBF8E
:10066000DF91CF911F910F91BF90AF909F908F908E
:100670000895E95CE1CF1F920F920FB60F921124FB
:100680002F933F934F935F936F937F938F939F939A
:10069000AF93BF93EF93FF9387E591E00E942B0107
:1006A000FF91EF91BF91AF919F918F917F916F914A
:1006B0005F914F913F912F910F900FBE0F901F9020
:1006C00018951F920F920FB60F9211242F938F93AC
:1006D0009F93EF93FF93E0916701F0916801808110
:1006E000E0916D01F0916E0182FD1BC090818091BF
:1006F00070018F5F8F7320917101821741F0E0913B
:100700007001F0E0E95AFE4F958F80937001FF91E0
:10071000EF919F918F912F910F900FBE0F901F908F
:1007200018958081F4CF1F920F920FB60F9211246B
:100730002F933F938F939F93AF93BF938091270104
:1007400090912801A0912901B0912A0130912601B0
:1007500023E0230F2D3758F50196A11DB11D2093DD
:1007600026018093270190932801A0932901B0933B
:100770002A0180912B0190912C01A0912D01B09123
:100780002E010196A11DB11D80932B0190932C0188
:10079000A0932D01B0932E01BF91AF919F918F91A6
:1007A0003F912F910F900FBE0F901F90189526E844
:1007B000230F0296A11DB11DD2CF1F920F920FB62B
:1007C0000F9211242F933F934F935F936F937F93D7
:1007D0008F939F93AF93BF93CF93DF93EF93FF9349
:1007E00080912401C0912501D0E087FF24C01092A0
:1007F000850010928400809124018F5F80932401F2
:1008000080912401082E000C990B8C179D0724F46D
:10081000809124018C30C4F18091840090918500F6
:10082000049680349C4908F47AC0809184009091A9
:100830008500049676C080912401082E000C990B47
:100840008C179D07C4F6E09124018E2FEE0F990BB3
:10085000FC01EE0FFF1FE80FF91FED5CFE4F8081DA
:1008600086FFC9CFE09124018E2FEE0F990BFC017A
:10087000EE0FFF1FE80FF91FED5CFE4F808160E077
:100880008F730E94BA01B7CF209184003091850008
:10089000E09124018E2FEE0F990BFC01EE0FFF1F4C
:1008A000E80FF91FED5CFE4F81819281820F931F4B
:1008B0009093890080938800E09124018E2FEE0FA1
:1008C000990BFC01EE0FFF1FE80FF91FED5CFE4FC7
:1008D000808186FF11C0E09124018E2FEE0F990BCD
:1008E000FC01EE0FFF1FE80FF91FED5CFE4F80814A
:1008F00061E08F730E94BA01FF91EF91DF91CF9178
:10090000BF91AF919F918F917F916F915F914F9127
:100910003F912F910F900FBE0F901F90189580E47C
:100920009CE990938900809388008FEF8093240145
:10093000E3CFCF92DF92EF92FF920F931F93E82FB6
:10094000F92F05C0015011092109310961F1908188
:1009500096239417B9F305C00150110921093109F3
:1009600011F1908196239413F7CFC12CD12CE12C57
:10097000F12C0AC08FEFC81AD80AE80AF80A0C1539
:100980001D052E053F0579F080818623841791F39C
:100990006C2D7D2D8E2D9F2D1F910F91FF90EF902F
:1009A000DF90CF90089560E070E080E090E01F91CC
:1009B0000F91FF90EF90DF90CF900895FC01909100
:1009C00025019C3098F481E0890F80932501908364
:1009D000892F90E0FC01EE0FFF1FE80FF91FED5C7F
:1009E000FE4F88EB9BE09283818308958FEF808395
:1009F0000895E7E5F1E01382128288EE93E0A0E02B
:100A0000B0E084839583A683B78384E091E09183EB
:100A1000808385EC90E09587848784EC90E09787CD
:100A2000868780EC90E0918B808B81EC90E0938BBB
:100A3000828B82EC90E0958B848B86EC90E0978B98
:100A4000868B118E128E138E148E83E092E00E949C
:100A5000DE0480E092E00E94DE048DEF91E00E94CF
:100A6000DE048AEF91E00E94DE0487EF91E00E94AD
:100A7000DE0484EF91E00C94DE04789484B5826007
:100A800084BD84B5816084BD85B5826085BD85B532
:100A9000816085BD80916E00816080936E001092B0
:100AA000810080918100826080938100809181002B
:100AB00081608093810080918000816080938000BC
:100AC0008091B10084608093B1008091B00081601A
:100AD0008093B00080917A00846080937A00809146
:100AE0007A00826080937A0080917A00816080939E
:100AF0007A0080917A00806880937A001092C10019
:100B0000E0916701F091680182E08083E0916301E8
:100B1000F09164011082E0916501F09166018FEC23
:100B2000808310926F01E0916B01F0916C0186E07F
:100B30008083E0916901F0916A0180818061808306
:100B4000E0916901F0916A01808188608083E09181
:100B50006901F0916A01808180688083E091690178
:100B6000F0916A0180818F7D808361E08BE00E943B
:100B7000060260E08CE00E940602C3E2D0E0BAEB1D
:100B80002B2EB0E03B2E16EAA12E10E0B12E00E095
:100B9000802E00E0902E63E070E083E092E00E94FF
:100BA0008E0265E070E080E092E00E948E0266E0D6
:100BB00070E08DEF91E00E948E0269E070E08AEFB4
:100BC00091E00E948E026AE070E087EF91E00E945F
:100BD0008E026BE070E084EF91E00E948E0260E094
:100BE0008BE00E94BA0183E090E00197F1F761E0A9
:100BF0008BE00E94BA01CE010197F1F760E08BE033
:100C00000E94BA01F1016491F5018491E82FF0E0AE
:100C1000EE0FFF1FE057FF4F8591949100E412E41F
:100C20002FE030E0462F0E9499046115710581057F
:100C3000910529F06F5F7F4F8F4F9F4F9F700E94EC
:100C40001F0828E23EE74CE05DE30E94D60820E062
:100C500030E040E05FE30E94D6086B017C01C09267
:100C60002F01D0923001E0923101F0923201AC01BB
:100C70009B010E944309882309F44DC082E191E061
:100C80000E94EA028EE191E00E94EA0281E291E094
:100C90000E94EA0264E670E080E090E00E945C025C
:100CA00020E030E04FEA53E460912F017091300171
:100CB00080913101909132010E94EB0718160CF4DB
:100CC000A6C083E092E00E948C0080E092E00E9447
:100CD0008C008DEF91E00E948C008AEF91E00E94E1
:100CE0008C0087EF91E00E948C0084EF91E00E94DD
:100CF0008C006FE070E080E090E00E945C02811464
:100D0000910409F448CF0E941701882309F443CFC6
:100D10000E94000040CF2FEF3FEF4FE75FE7C70192
:100D2000B6010E94430981110DC02FEF3FEF4FE73D
:100D30005FE7C701B6010E94EB0718161CF486E1B5
:100D400091E09ECF2FEF3FEF4FE75FE4C701B60181
:100D50000E94D10818161CF48AE191E091CF2FEF80
:100D60003FEF4FE75FECC701B6010E94EB0787FD3D
:100D7000F3CF2AE037ED43EA5BE3C701B6010E94F7
:100D80007F072B013C010E94F0076B017C010E9450
:100D90001F089B01AC01C301B2010E947E072B0119
:100DA0003C014AE0C701B6010E94F7026EE287E506
:100DB00091E00E944D0120E030E040E251E4C301A7
:100DC000B2010E94D6082B013C010E94F0076B0182
:100DD000F12CE12C4AE0C701B6010E94F702C701DD
:100DE000B6010E941F089B01AC01C301B2010E9421
:100DF0007E0720E030E040E251E40E94D6080E94E5
:100E0000F00790E080E04AE00E94F7023BCFE091DB
:100E100003028E2F90E0FC01EE0FFF1FE80FF91F79
:100E2000ED5CFE4F80818F7B8083E09100028E2FEE
:100E300090E0FC01EE0FFF1FE80FF91FED5CFE4F85
:100E400080818F7B8083E091FD018E2F90E0FC01FB
:100E5000EE0FFF1FE80FF91FED5CFE4F80818F7BC7
:100E60008083E091FA018E2F90E0FC01EE0FFF1FCE
:100E7000E80FF91FED5CFE4F80818F7B8083E0914E
:100E8000F7018E2F90E0FC01EE0FFF1FE80FF91F16
:100E9000ED5CFE4F80818F7B8083E091F4018E2F8B
:100EA00090E0FC01EE0FFF1FE80FF91FED5CFE4F15
:100EB00080818F7B808323CFA1E21A2EAA1BBB1BCC
:100EC000FD010DC0AA1FBB1FEE1FFF1FA217B30716
:100ED000E407F50720F0A21BB30BE40BF50B661F2C
:100EE000771F881F991F1A9469F7609570958095F0
:100EF00090959B01AC01BD01CF0108955058BB27CF
:100F0000AA270E9496070C9497080E94890838F037
:100F10000E94900820F039F49F3F19F426F40C94B5
:100F200086080EF4E095E7FB0C948008E92F0E94F8
:100F3000A80858F3BA17620773078407950720F0CB
:100F400079F4A6F50C94CA080EF4E0950B2EBA2F8E
:100F5000A02D0B01B90190010C01CA01A0011124BF
:100F6000FF27591B99F0593F50F4503E68F11A166B
:100F7000F040A22F232F342F4427585FF3CF4695FC
:100F800037952795A795F0405395C9F77EF41F161E
:100F9000BA0B620B730B840BBAF09150A1F0FF0FE8
:100FA000BB1F661F771F881FC2F70EC0BA0F621FD4
:100FB000731F841F48F4879577956795B795F795C4
:100FC0009E3F08F0B0CF9395880F08F09927EE0F59
:100FD0009795879508950E945C0808F481E008952C
:100FE0000E94B00888F09F5798F0B92F9927B75101
:100FF000B0F0E1F0660F771F881F991F1AF0BA95BD
:10100000C9F714C0B13091F00E94CA08B1E0089548
:101010000C94CA08672F782F8827B85F39F0B93F3A
:10102000CCF3869577956795B395D9F73EF490956F
:101030008095709561957F4F8F4F9F4F0895E894ED
:1010400009C097FB3EF490958095709561957F4F10
:101050008F4F9F4F9923A9F0F92F96E9BB279395BE
:10106000F695879577956795B795F111F8CFFAF4CE
:10107000BB0F11F460FF1BC06F5F7F4F8F4F9F4FFF
:1010800016C0882311F096E911C0772321F09EE85D
:10109000872F762F05C0662371F096E8862F70E0C3
:1010A00060E02AF09A95660F771F881FDAF7880F9D
:1010B0009695879597F90895990F0008550FAA0BF3
:1010C000E0E8FEEF16161706E807F907C0F012165B
:1010D0001306E407F50798F0621B730B840B950B5E
:1010E00039F40A2661F0232B242B252B21F40895B3
:1010F0000A2609F4A140A6958FEF811D811D089550
:1011000097F99F6780E870E060E008959FEF80ECBA
:10111000089500240A94161617061806090608955D
:1011200000240A9412161306140605060895092EC3
:101130000394000C11F4882352F0BB0F40F4BF2B32
:1011400011F460FF04C06F5F7F4F8F4F9F4F089572
:1011500057FD9058440F551F59F05F3F71F0479568
:10116000880F97FB991F61F09F3F79F0879508954D
:10117000121613061406551FF2CF4695F1DF08C06C
:10118000161617061806991FF1CF86957105610589
:1011900008940895E894BB2766277727CB0197F931
:1011A00008950E945C0808F48FEF08950E94E908F2
:1011B0000C9497080E94890838F00E94900820F04B
:1011C000952311F00C9480080C94860811240C943B
:1011D000CB080E94A80870F3959FC1F3950F50E0CB
:1011E000551F629FF001729FBB27F00DB11D639FD9
:1011F000AA27F00DB11DAA1F649F6627B00DA11D7F
:10120000661F829F2227B00DA11D621F739FB00D24
:10121000A11D621F839FA00D611D221F749F332794
:10122000A00D611D231F849F600D211D822F762F2D
:101230006A2F11249F5750409AF0F1F088234AF00A
:10124000EE0FFF1FBB1F661F771F881F9150504076
:10125000A9F79E3F510580F00C9480080C94CB08B0
:101260005F3FE4F3983ED4F3869577956795B795FD
:10127000F795E7959F5FC1F7FE2B880F911D969517
:10128000879597F908950E945C08880B990B08953B
:10129000991B79E004C0991F961708F0961B881FC8
:1012A0007A95C9F780950895EE0FFF1F0590F49188
:1012B000E02D0994F894FFCF000000004D01AD002F
:1012C000DA009A010B01E900FD006E616E00696EA3
:0C12D00066006F766600636D000D0A007A
:107E0000112484B714BE81FFF0D085E080938100F7
:107E100082E08093C00088E18093C10086E0809377
:107E2000C20080E18093C4008EE0C9D0259A86E02C
:107E300020E33CEF91E0309385002093840096BBD3
:107E4000B09BFECF1D9AA8958150A9F7CC24DD24C4
:107E500088248394B5E0AB2EA1E19A2EF3E0BF2EE7
:107E6000A2D0813461F49FD0082FAFD0023811F036
:107E7000013811F484E001C083E08DD089C08234E0
:107E800011F484E103C0853419F485E0A6D080C0E4
:107E9000853579F488D0E82EFF2485D0082F10E0AE
:107EA000102F00270E291F29000F111F8ED06801E7
:107EB0006FC0863521F484E090D080E0DECF843638
:107EC00009F040C070D06FD0082F6DD080E0C81688
:107ED00080E7D80618F4F601B7BEE895C0E0D1E017
:107EE00062D089930C17E1F7F0E0CF16F0E7DF06D8
:107EF00018F0F601B7BEE89568D007B600FCFDCFD4
:107F0000A601A0E0B1E02C9130E011968C91119780
:107F100090E0982F8827822B932B1296FA010C0160
:107F200087BEE89511244E5F5F4FF1E0A038BF0790
:107F300051F7F601A7BEE89507B600FCFDCF97BE46
:107F4000E89526C08437B1F42ED02DD0F82E2BD052
:107F50003CD0F601EF2C8F010F5F1F4F84911BD097
:107F6000EA94F801C1F70894C11CD11CFA94CF0C13
:107F7000D11C0EC0853739F428D08EE10CD085E9AC
:107F80000AD08FE07ACF813511F488E018D01DD067
:107F900080E101D065CF982F8091C00085FFFCCF94
:107FA0009093C60008958091C00087FFFCCF809118
:107FB000C00084FD01C0A8958091C6000895E0E648
:107FC000F0E098E1908380830895EDDF803219F02E
:107FD00088E0F5DFFFCF84E1DECF1F93182FE3DFCA
:107FE0001150E9F7F2DF1F91089580E0E8DFEE27F6
:047FF000FF270994CA
:027FFE00040479
:00000001FF
