:020000040000FA
:100000000C945D000C9485000C9485000C94850084
:100010000C9485000C9485000C9485000C9485004C
:100020000C9485000C9485000C9485000C94B60308
:100030000C9485000C9485000C9485000C9485002C
:100040000C946C030C9485000C943A030C941403E8
:100050000C9485000C9485000C9485000C9485000C
:100060000C9485000C94850000000008000201003B
:100070000003040700000000000000000000000072
:10008000250028002B0000000000240027002A0083
:10009000040404040404040402020202020203032E
:1000A0000303030301020408102040800102040836
:1000B00010200102040810208D0411241FBECFEF70
:1000C000D8E0DEBFCDBF11E0A0E0B1E0E2E2FDE0AC
:1000D00002C005900D92A231B107D9F721E0A2E14B
:1000E000B1E001C01D92A03FB207E1F710E0CDE5FD
:1000F000D0E004C02197FE010E948906CC35D107CB
:10010000C9F70E94D1040C948F060C94000090E073
:10011000FC01EC55FF4F249180579F4FFC018491C7
:10012000882399F090E0880F991FFC01EA57FF4F50
:10013000A591B491FC01E458FF4F859194918FB73C
:10014000F894EC91E22BEC938FBF0895AF92BF929D
:10015000CF92DF92EF92FF920F931F93CF93DF9393
:100160006C017B018B01040F151FEB015E01AE18C2
:10017000BF08C017D10759F06991D601ED91FC91E4
:100180000190F081E02DC6010995892B79F7C50111
:10019000DF91CF911F910F91FF90EF90DF90CF9063
:1001A000BF90AF900895FC01538D448D252F30E012
:1001B000842F90E0821B930B541710F0CF96089574
:1001C00001970895FC01918D828D981761F0A28DA1
:1001D000AE0FBF2FB11D5D968C91928D9F5F9F7367
:1001E000928F90E008958FEF9FEF0895FC01918D1D
:1001F000828D981731F0828DE80FF11D858D90E08A
:1002000008958FEF9FEF0895FC01918D228D892F26
:1002100090E0805C9F4F821B91098F73992708950E
:1002200081E491E00E94040121E0892B09F420E09F
:10023000822F089580E090E0892B29F00E94100120
:1002400081110C9400000895FC01A48DA80FB92F12
:10025000B11DA35ABF4F2C91848D90E001968F73EE
:100260009927848FA689B7892C93A089B1898C910D
:10027000837080648C93938D848D981306C002885C
:10028000F389E02D80818F7D80830895EF92FF9226
:100290000F931F93CF93DF93EC0181E0888F9B8DA9
:1002A0008C8D98131AC0E889F989808185FF15C063
:1002B0009FB7F894EE89FF896083E889F989808186
:1002C0008370806480839FBF81E090E0DF91CF9155
:1002D0001F910F91FF90EF900895F62E0B8D10E077
:1002E0000F5F1F4F0F731127E02E8C8D8E110CC0E6
:1002F0000FB607FCFACFE889F989808185FFF5CF31
:10030000CE010E942401F1CFEB8DEC0FFD2FF11DEA
:10031000E35AFF4FF0829FB7F8940B8FEA89FB896D
:1003200080818062CFCFCF93DF93EC01888D8823CB
:10033000B9F0AA89BB89E889F9898C9185FD03C048
:10034000808186FD0DC00FB607FCF7CF8C9185FF2D
:10035000F2CF808185FFEDCFCE010E942401E9CF4D
:10036000DF91CF91089590E0FC01E859FF4F24916F
:10037000FC01EC55FF4F3491FC01E057FF4FE49135
:10038000EE23C9F0222339F0233001F1A8F4213003
:1003900019F1223029F1F0E0EE0FFF1FE458FF4F72
:1003A000A591B4918FB7F894EC91611126C0309566
:1003B0003E233C938FBF08952730A9F02830C9F021
:1003C000243049F7809180008F7D03C080918000A8
:1003D0008F7780938000DFCF84B58F7784BDDBCFAC
:1003E00084B58F7DFBCF8091B0008F778093B00074
:1003F000D2CF8091B0008F7DF9CF3E2BDACF3FB7BF
:10040000F8948091190190911A01A0911B01B0916B
:100410001C0126B5A89B05C02F3F19F00196A11D10
:10042000B11D3FBFBA2FA92F982F8827BC01CD013E
:10043000620F711D811D911D42E0660F771F881F9D
:10044000991F4A95D1F708958F929F92AF92BF92CC
:10045000CF92DF92EF92FF924B015C010E94FF016D
:100460006B017C010E94FF016C197D098E099F09B7
:10047000683E734081059105A8F321E0821A910836
:10048000A108B10888EEC80E83E0D81EE11CF11C5B
:1004900081149104A104B10429F7FF90EF90DF903B
:1004A000CF90BF90AF909F908F9008958F929F9222
:1004B000AF92BF92FF920F931F93CF93DF93FC01F4
:1004C000F0808BE08F1508F44AC0828108E512E0C5
:1004D000081B110987FD1395000F111F000F111F35
:1004E0008181C8E8D0E0C81BD10987FDD395CC0F26
:1004F000DD1FCC0FDD1F4E010D2E000CAA08BB081E
:100500009801012E000C440B550B281939094A0992
:100510005B09DB010E94440624EB30E040E050E040
:100520000E941A06820E931EA41EB51E8C169D06EE
:100530002CF0E801801691060CF4E4012297CC0F10
:10054000DD1F2FB7F8948F2D90E0FC01EE0FFF1FF9
:10055000E80FF91FE35EFE4FD283C1832FBFDF9107
:10056000CF911F910F91FF90BF90AF909F908F9070
:1005700008951F93CF93DF93EC01162F88818C3061
:1005800008F04DC0862F0E9487008881282F30E018
:10059000F901EE0FFF1FE20FF31FE35EFE4F1F7323
:1005A0006081607C612B608319821A822CE0622F4B
:1005B0000E947D06829FB001112430E020E0AB0153
:1005C000420F531FFA01EE0FFF1FE40FF51FE35E0A
:1005D000FE4F908196FD16C02F5F3F4F2C303105A6
:1005E00071F781110FC01092800082E0809381002A
:1005F0001092850010928400B19A80916F00826001
:1006000080936F00E8818E2F90E0FC01EE0FFF1FBA
:10061000E80FF91FE35EFE4F80818064808388814C
:10062000DF91CF911F9108951F920F920FB60F92F5
:1006300011242F933F934F935F936F937F938F93E7
:100640009F93AF93BF93EF93FF9381E491E00E9458
:100650002401FF91EF91BF91AF919F918F917F9175
:100660006F915F914F913F912F910F900FBE0F901F
:100670001F9018951F920F920FB60F9211242F936F
:100680008F939F93EF93FF93E0915101F09152016B
:100690008081E0915701F091580182FD1BC090814B
:1006A00080915A018F5F8F7320915B01821741F017
:1006B000E0915A01F0E0EF5BFE4F958F80935A0175
:1006C000FF91EF919F918F912F910F900FBE0F90FF
:1006D0001F9018958081F4CF1F920F920FB60F9242
:1006E00011242F933F938F939F93AF93BF93809148
:1006F000150190911601A0911701B0911801309148
:10070000140123E0230F2D3758F50196A11DB11DCB
:10071000209314018093150190931601A093170163
:10072000B09318018091190190911A01A0911B01B9
:10073000B0911C010196A11DB11D809319019093E8
:100740001A01A0931B01B0931C01BF91AF919F911F
:100750008F913F912F910F900FBE0F901F90189582
:1007600026E8230F0296A11DB11DD2CF1F920F9232
:100770000FB60F9211242F933F934F935F936F9374
:100780007F938F939F93AF93BF93CF93DF93EF9319
:10079000FF9380911201C0911301D0E087FF24C024
:1007A0001092850010928400809112018F5F8093D7
:1007B000120180911201082E000C990B8C179D07D5
:1007C00024F4809112018C30C4F1809184009091C6
:1007D0008500049680349C4908F47AC08091840096
:1007E00090918500049676C080911201082E000C2D
:1007F000990B8C179D07C4F6E09112018E2FEE0F16
:10080000990BFC01EE0FFF1FE80FF91FE35EFE4F8F
:10081000808186FFC9CFE09112018E2FEE0F990BD8
:10082000FC01EE0FFF1FE80FF91FE35EFE4F808112
:1008300060E08F730E94B301B7CF209184003091A4
:100840008500E09112018E2FEE0F990BFC01EE0F47
:10085000FF1FE80FF91FE35EFE4F81819281820F37
:10086000931F9093890080938800E09112018E2F4E
:10087000EE0F990BFC01EE0FFF1FE80FF91FE35E6F
:10088000FE4F808186FF11C0E09112018E2FEE0F86
:10089000990BFC01EE0FFF1FE80FF91FE35EFE4FFF
:1008A000808161E08F730E94B301FF91EF91DF912E
:1008B000CF91BF91AF919F918F917F916F915F91F8
:1008C0004F913F912F910F900FBE0F901F90189551
:1008D00080E49CE990938900809388008FEF809357
:1008E0001201E3CFFC01909113019C3098F481E058
:1008F000890F809313019083892F90E0FC01EE0F04
:10090000FF1FE80FF91FE35EFE4F88EB9BE0928329
:10091000818308958FEF80830895E1E4F1E01382ED
:10092000128288EE93E0A0E0B0E084839583A683F2
:10093000B78384E091E09183808385EC90E0958794
:10094000848784EC90E09787868780EC90E0918B99
:10095000808B81EC90E0938B828B82EC90E0958B86
:10096000848B86EC90E0978B868B118E128E138E83
:10097000148E8DEE91E00E9472048AEE91E00E9446
:10098000720487EE91E00E94720484EE91E00E946E
:10099000720481EE91E00E9472048EED91E00C945D
:1009A0007204789484B5826084BD84B5816084BD0E
:1009B00085B5826085BD85B5816085BD80916E00FD
:1009C000816080936E00109281008091810082602E
:1009D000809381008091810081608093810080916B
:1009E00080008160809380008091B100846080935A
:1009F000B1008091B00081608093B00080917A0056
:100A0000846080937A0080917A00826080937A007B
:100A100080917A00816080937A0080917A0080686A
:100A200080937A001092C100E0915101F09152013F
:100A300082E08083E0914D01F0914E011082E091BF
:100A40004F01F09150018FEC808310925901E09199
:100A50005501F091560186E08083E0915301F091B9
:100A60005401808180618083E0915301F0915401B1
:100A7000808188608083E0915301F09154018081EE
:100A800080688083E0915301F091540180818F7DD3
:100A9000808384E00E948700C0E0D0E063E070E0E3
:100AA0008DEE91E00E94B90265E070E08AEE91E07F
:100AB0000E94B90266E070E087EE91E00E94B90200
:100AC00069E070E084EE91E00E94B9026AE070E0B3
:100AD00081EE91E00E94B9026BE070E08EED91E052
:100AE0000E94B90281E491E00E94040118161906DF
:100AF0000CF095C081E491E00E94E200813409F499
:100B00005FC0823479F760E084E00E94B301E09135
:100B1000ED018E2F90E0FC01EE0FFF1FE80FF91F93
:100B2000E35EFE4F80818F7B8083E091EA018E2F10
:100B300090E0FC01EE0FFF1FE80FF91FE35EFE4F90
:100B400080818F7B8083E091E7018E2F90E0FC0114
:100B5000EE0FFF1FE80FF91FE35EFE4F80818F7BD2
:100B60008083E091E4018E2F90E0FC01EE0FFF1FE7
:100B7000E80FF91FE35EFE4F80818F7B8083E09159
:100B8000E1018E2F90E0FC01EE0FFF1FE80FF91F2F
:100B9000E35EFE4F80818F7B8083E091DE018E2FAC
:100BA00090E0FC01EE0FFF1FE80FF91FE35EFE4F20
:100BB00080818F7B808365E070E080E090E02CC0D6
:100BC00061E084E00E94B3016AE570E08DEE91E09F
:100BD0000E94560264EB70E08AEE91E00E94560299
:100BE0006AE570E087EE91E00E94560264EB70E0E7
:100BF00084EE91E00E9456026AE570E081EE91E099
:100C00000E94560264EB70E08EED91E00E94560265
:100C10006FE070E080E090E00E94240263CF2097B4
:100C200009F43CCF0E941001882309F437CF0E94B9
:100C3000000034CF052E97FB1EF400940E9431066D
:100C400057FD07D00E944C0607FC03D04EF40C94CD
:100C5000310650954095309521953F4F4F4F5F4F4E
:100C6000089590958095709561957F4F8F4F9F4F18
:100C700008950E946E06A59F900DB49F900DA49FAD
:100C8000800D911D11240895B7FF0C9439060E9420
:100C90003906821B930B0895A1E21A2EAA1BBB1BD7
:100CA000FD010DC0AA1FBB1FEE1FFF1FA217B30738
:100CB000E407F50720F0A21BB30BE40BF50B661F4E
:100CC000771F881F991F1A9469F760957095809512
:100CD00090959B01AC01BD01CF010895A29FB00189
:100CE000B39FC001A39F700D811D1124911DB29F60
:100CF000700D811D1124911D0895991B79E004C088
:100D0000991F961708F0961B881F7A95C9F780954A
:100D10000895EE0FFF1F0590F491E02D0994F894CB
:100D2000FFCF000000004601A600D300930104019C
:040D3000E200F600E7
:107E0000112484B714BE81FFF0D085E080938100F7
:107E100082E08093C00088E18093C10086E0809377
:107E2000C20080E18093C4008EE0C9D0259A86E02C
:107E300020E33CEF91E0309385002093840096BBD3
:107E4000B09BFECF1D9AA8958150A9F7CC24DD24C4
:107E500088248394B5E0AB2EA1E19A2EF3E0BF2EE7
:107E6000A2D0813461F49FD0082FAFD0023811F036
:107E7000013811F484E001C083E08DD089C08234E0
:107E800011F484E103C0853419F485E0A6D080C0E4
:107E9000853579F488D0E82EFF2485D0082F10E0AE
:107EA000102F00270E291F29000F111F8ED06801E7
:107EB0006FC0863521F484E090D080E0DECF843638
:107EC00009F040C070D06FD0082F6DD080E0C81688
:107ED00080E7D80618F4F601B7BEE895C0E0D1E017
:107EE00062D089930C17E1F7F0E0CF16F0E7DF06D8
:107EF00018F0F601B7BEE89568D007B600FCFDCFD4
:107F0000A601A0E0B1E02C9130E011968C91119780
:107F100090E0982F8827822B932B1296FA010C0160
:107F200087BEE89511244E5F5F4FF1E0A038BF0790
:107F300051F7F601A7BEE89507B600FCFDCF97BE46
:107F4000E89526C08437B1F42ED02DD0F82E2BD052
:107F50003CD0F601EF2C8F010F5F1F4F84911BD097
:107F6000EA94F801C1F70894C11CD11CFA94CF0C13
:107F7000D11C0EC0853739F428D08EE10CD085E9AC
:107F80000AD08FE07ACF813511F488E018D01DD067
:107F900080E101D065CF982F8091C00085FFFCCF94
:107FA0009093C60008958091C00087FFFCCF809118
:107FB000C00084FD01C0A8958091C6000895E0E648
:107FC000F0E098E1908380830895EDDF803219F02E
:107FD00088E0F5DFFFCF84E1DECF1F93182FE3DFCA
:107FE0001150E9F7F2DF1F91089580E0E8DFEE27F6
:047FF000FF270994CA
:027FFE00040479
:00000001FF
